{
  "address": "0xB377a2EeD7566Ac9fCb0BA673604F9BF875e2Bab",
  "abi": [
    {
      "stateMutability": "payable",
      "type": "constructor",
      "inputs": [],
      "outputs": []
    },
    {
      "stateMutability": "pure",
      "type": "function",
      "name": "simple",
      "inputs": [
        {
          "name": "x",
          "type": "uint256"
        },
        {
          "name": "b",
          "type": "bool"
        },
        {
          "name": "s",
          "type": "string"
        }
      ],
      "outputs": [
        {
          "name": "",
          "type": "uint256"
        },
        {
          "name": "",
          "type": "bool"
        },
        {
          "name": "",
          "type": "string"
        }
      ],
      "gas": 14365
    },
    {
      "stateMutability": "view",
      "type": "function",
      "name": "extFn",
      "inputs": [
        {
          "name": "x",
          "type": "uint256"
        }
      ],
      "outputs": [
        {
          "name": "",
          "type": "uint256"
        }
      ],
      "gas": 1188
    },
    {
      "stateMutability": "payable",
      "type": "function",
      "name": "receiveEther",
      "inputs": [],
      "outputs": [],
      "gas": 35314
    },
    {
      "stateMutability": "view",
      "type": "function",
      "name": "greet",
      "inputs": [],
      "outputs": [
        {
          "name": "",
          "type": "string"
        }
      ],
      "gas": 17381
    },
    {
      "stateMutability": "view",
      "type": "function",
      "name": "value",
      "inputs": [],
      "outputs": [
        {
          "name": "",
          "type": "uint256"
        }
      ],
      "gas": 2580
    },
    {
      "stateMutability": "view",
      "type": "function",
      "name": "owner",
      "inputs": [],
      "outputs": [
        {
          "name": "",
          "type": "address"
        }
      ],
      "gas": 2610
    }
  ],
  "transactionHash": "0xc986f9ab41503a6fb0d92daf7d53f0f37036ed12f84f19cd440bf776a8194f77",
  "args": [],
  "numDeployments": 1,
  "bytecode": "0x600b60e0527f48656c6c6f20576f726c640000000000000000000000000000000000000000006101005260e0806000602082510160c060006002818352015b8260c05160200211156100505761006f565b60c05160200285015160c051850155815160010180835281141561003e575b505050505050336006553460055561034f56600436101561000d5761029f565b60046000601c3760005163a3912ec881186100285734600555005b346102c85763958328e98118610167576024358060011c6102c85760e052604435600401600a8135116102c8578080356020018082610100375050506101c0806060600435600181818301106102c85780820190509050825260208201915060e0511582526020820191508082526000610100600a806020846101800101826020850160045afa5050805182019150506001610140527f3f00000000000000000000000000000000000000000000000000000000000000610160526101406001806020846101800101826020850160045afa50508051820191505080610180526101809050818401808280516020018083828460045afa905050508051806020830101818260206001820306601f8201039050033682375050805160200160206001820306601f820103905090509050905081019050905090506101c0f35b6354e0585a81186101cc57600161012052600061014052600160e0526002610100526101946101606102a5565b610160805161012052602081015161014052506004356004358082028215828483041417156102c85790509050610160526020610160f35b63cfae3217811861026f5760e08060208082528083018060008082602082540160c060006005818352015b8260c051602002111561020957610228565b60c05185015460c05160200285015281516001018083528114156101f7575b5050505050508051806020830101818260206001820306601f8201039050033682375050805160200160206001820306601f820103905090509050810190509050905060e0f35b633fa4f24581186102865760055460e052602060e0f35b638da5cb5b811861029d5760065460e052602060e0f35b505b60006000fd5b60e0516101005181818301106102c8578082019050905081526001602082015250565b600080fd5b61008261034f0361008260003961008261034f036000f3"
}