{
  "address": "0xefAB0Beb0A557E452b398035eA964948c750b2Fd",
  "abi": [
    {
      "inputs": [
        {
          "internalType": "string",
          "name": "_text",
          "type": "string"
        }
      ],
      "name": "create",
      "outputs": [],
      "stateMutability": "nonpayable",
      "type": "function"
    },
    {
      "inputs": [
        {
          "internalType": "uint256",
          "name": "_index",
          "type": "uint256"
        }
      ],
      "name": "get",
      "outputs": [
        {
          "internalType": "string",
          "name": "",
          "type": "string"
        },
        {
          "internalType": "bool",
          "name": "",
          "type": "bool"
        }
      ],
      "stateMutability": "view",
      "type": "function"
    },
    {
      "inputs": [
        {
          "internalType": "uint256",
          "name": "",
          "type": "uint256"
        }
      ],
      "name": "todos",
      "outputs": [
        {
          "internalType": "string",
          "name": "text",
          "type": "string"
        },
        {
          "internalType": "bool",
          "name": "completed",
          "type": "bool"
        }
      ],
      "stateMutability": "view",
      "type": "function"
    },
    {
      "inputs": [
        {
          "internalType": "uint256",
          "name": "_index",
          "type": "uint256"
        }
      ],
      "name": "toggleCompleted",
      "outputs": [],
      "stateMutability": "nonpayable",
      "type": "function"
    },
    {
      "inputs": [
        {
          "internalType": "uint256",
          "name": "_index",
          "type": "uint256"
        },
        {
          "internalType": "string",
          "name": "_text",
          "type": "string"
        }
      ],
      "name": "updateText",
      "outputs": [],
      "stateMutability": "nonpayable",
      "type": "function"
    }
  ],
  "transactionHash": "0x05c838cef8b3c0107a88666bf3aa49cdab36fed31960125337d5d4bac3003301",
  "args": [],
  "numDeployments": 1,
  "solcInputHash": "eb08c468ab781e4244e47f48238a9e5d",
  "bytecode": "0x608060405234801561001057600080fd5b50610899806100206000396000f3fe608060405234801561001057600080fd5b50600436106100575760003560e01c8063455f50241461005c5780639507d39a14610078578063b6a46b3b146100a9578063bc8bc2b4146100c5578063cd111614146100f6575b600080fd5b610076600480360381019061007191906105b0565b610112565b005b610092600480360381019061008d91906105b0565b610185565b6040516100a0929190610691565b60405180910390f35b6100c360048036038101906100be9190610726565b61027a565b005b6100df60048036038101906100da91906105b0565b610344565b6040516100ed929190610691565b60405180910390f35b610110600480360381019061010b9190610773565b61040d565b005b60008181548110610126576101256107d3565b5b906000526020600020906002020160010160009054906101000a900460ff16156000828154811061015a576101596107d3565b5b906000526020600020906002020160010160006101000a81548160ff02191690831515021790555050565b60606000806000848154811061019e5761019d6107d3565b5b90600052602060002090600202016040518060400160405290816000820180546101c790610831565b80601f01602080910402602001604051908101604052809291908181526020018280546101f390610831565b80156102405780601f1061021557610100808354040283529160200191610240565b820191906000526020600020905b81548152906001019060200180831161022357829003601f168201915b505050505081526020016001820160009054906101000a900460ff1615151515815250509050806000015181602001519250925050915091565b6000604051806040016040528084848080601f016020809104026020016040519081016040528093929190818152602001838380828437600081840152601f19601f820116905080830192505050505050508152602001600015158152509080600181540180825580915050600190039060005260206000209060020201600090919091909150600082015181600001908051906020019061031d929190610447565b5060208201518160010160006101000a81548160ff02191690831515021790555050505050565b6000818154811061035457600080fd5b906000526020600020906002020160009150905080600001805461037790610831565b80601f01602080910402602001604051908101604052809291908181526020018280546103a390610831565b80156103f05780601f106103c5576101008083540402835291602001916103f0565b820191906000526020600020905b8154815290600101906020018083116103d357829003601f168201915b5050505050908060010160009054906101000a900460ff16905082565b818160008581548110610423576104226107d3565b5b906000526020600020906002020160000191906104419291906104cd565b50505050565b82805461045390610831565b90600052602060002090601f01602090048101928261047557600085556104bc565b82601f1061048e57805160ff19168380011785556104bc565b828001600101855582156104bc579182015b828111156104bb5782518255916020019190600101906104a0565b5b5090506104c99190610553565b5090565b8280546104d990610831565b90600052602060002090601f0160209004810192826104fb5760008555610542565b82601f1061051457803560ff1916838001178555610542565b82800160010185558215610542579182015b82811115610541578235825591602001919060010190610526565b5b50905061054f9190610553565b5090565b5b8082111561056c576000816000905550600101610554565b5090565b600080fd5b600080fd5b6000819050919050565b61058d8161057a565b811461059857600080fd5b50565b6000813590506105aa81610584565b92915050565b6000602082840312156105c6576105c5610570565b5b60006105d48482850161059b565b91505092915050565b600081519050919050565b600082825260208201905092915050565b60005b838110156106175780820151818401526020810190506105fc565b83811115610626576000848401525b50505050565b6000601f19601f8301169050919050565b6000610648826105dd565b61065281856105e8565b93506106628185602086016105f9565b61066b8161062c565b840191505092915050565b60008115159050919050565b61068b81610676565b82525050565b600060408201905081810360008301526106ab818561063d565b90506106ba6020830184610682565b9392505050565b600080fd5b600080fd5b600080fd5b60008083601f8401126106e6576106e56106c1565b5b8235905067ffffffffffffffff811115610703576107026106c6565b5b60208301915083600182028301111561071f5761071e6106cb565b5b9250929050565b6000806020838503121561073d5761073c610570565b5b600083013567ffffffffffffffff81111561075b5761075a610575565b5b610767858286016106d0565b92509250509250929050565b60008060006040848603121561078c5761078b610570565b5b600061079a8682870161059b565b935050602084013567ffffffffffffffff8111156107bb576107ba610575565b5b6107c7868287016106d0565b92509250509250925092565b7f4e487b7100000000000000000000000000000000000000000000000000000000600052603260045260246000fd5b7f4e487b7100000000000000000000000000000000000000000000000000000000600052602260045260246000fd5b6000600282049050600182168061084957607f821691505b6020821081141561085d5761085c610802565b5b5091905056fea2646970667358221220cd157e475400141e729e4af3a5644e4845ff8d91f07b74c9cf607a26e5c9b25764736f6c634300080a0033",
  "devdoc": {
    "kind": "dev",
    "methods": {},
    "version": 1
  },
  "userdoc": {
    "kind": "user",
    "methods": {},
    "version": 1
  },
  "storageLayout": {
    "storage": [
      {
        "astId": 4155,
        "contract": "contracts/solidity/TodoList.sol:TodoList",
        "label": "todos",
        "offset": 0,
        "slot": "0",
        "type": "t_array(t_struct(Todo)4151_storage)dyn_storage"
      }
    ],
    "types": {
      "t_array(t_struct(Todo)4151_storage)dyn_storage": {
        "base": "t_struct(Todo)4151_storage",
        "encoding": "dynamic_array",
        "label": "struct TodoList.Todo[]",
        "numberOfBytes": "32"
      },
      "t_bool": {
        "encoding": "inplace",
        "label": "bool",
        "numberOfBytes": "1"
      },
      "t_string_storage": {
        "encoding": "bytes",
        "label": "string",
        "numberOfBytes": "32"
      },
      "t_struct(Todo)4151_storage": {
        "encoding": "inplace",
        "label": "struct TodoList.Todo",
        "members": [
          {
            "astId": 4148,
            "contract": "contracts/solidity/TodoList.sol:TodoList",
            "label": "text",
            "offset": 0,
            "slot": "0",
            "type": "t_string_storage"
          },
          {
            "astId": 4150,
            "contract": "contracts/solidity/TodoList.sol:TodoList",
            "label": "completed",
            "offset": 0,
            "slot": "1",
            "type": "t_bool"
          }
        ],
        "numberOfBytes": "64"
      }
    }
  }
}