{
  "address": "0x66F625B8c4c635af8b74ECe2d7eD0D58b4af3C3d",
  "abi": [
    {
      "stateMutability": "nonpayable",
      "type": "function",
      "name": "swap",
      "inputs": [
        {
          "name": "i",
          "type": "uint256"
        },
        {
          "name": "j",
          "type": "uint256"
        }
      ],
      "outputs": [],
      "gas": 10524
    }
  ],
  "transactionHash": "0x0c83be237286dd138d698f84254e16ae07e0db666ee82227131ae4be5e616682",
  "args": [],
  "numDeployments": 1,
  "bytecode": "0x6101b956600436101561000d576101aa565b60046000601c37600051346101b05763d96073cf81186101a857736b175474e89094c44da98b954eedeac495271d0f60e05273a0b86991c6218b36c1d19d4a2e9eb0ce3606eb486101005273dac17f958d2ee523a2206206994597c13d831ec7610120526370a082316101605230610180526020610160602461017c60e060043560038110156101b05760200201515afa6100ad573d600060003e3d6000fd5b601f3d11156101b057610160516101405263095ea7b36101605273bebc44782c7db0a1a60cb6fe97d0b483032ff1c761018052610140516101a0526020610160604461017c600060e060043560038110156101b05760200201515af1610118573d600060003e3d6000fd5b601f3d11156101b05761016050633df021246101605260043580607f1c6101b0576101805260043580607f1c6101b0576101a052610140516101c05260016101e05273bebc44782c7db0a1a60cb6fe97d0b483032ff1c73b156101b05760006000608461017c600073bebc44782c7db0a1a60cb6fe97d0b483032ff1c75af16101a6573d600060003e3d6000fd5b005b505b60006000fd5b600080fd5b6100046101b9036100046000396100046101b9036000f3"
}