{
  "address": "0xe1Fd27F4390DcBE165f4D60DBF821e4B9Bb02dEd",
  "abi": [
    {
      "anonymous": false,
      "inputs": [
        {
          "indexed": false,
          "internalType": "string",
          "name": "message",
          "type": "string"
        },
        {
          "indexed": false,
          "internalType": "uint256",
          "name": "val",
          "type": "uint256"
        }
      ],
      "name": "Log",
      "type": "event"
    },
    {
      "inputs": [
        {
          "internalType": "address",
          "name": "_tokenA",
          "type": "address"
        },
        {
          "internalType": "address",
          "name": "_tokenB",
          "type": "address"
        },
        {
          "internalType": "uint256",
          "name": "_amountA",
          "type": "uint256"
        },
        {
          "internalType": "uint256",
          "name": "_amountB",
          "type": "uint256"
        }
      ],
      "name": "addLiquidity",
      "outputs": [],
      "stateMutability": "nonpayable",
      "type": "function"
    },
    {
      "inputs": [
        {
          "internalType": "address",
          "name": "_tokenToBorrow",
          "type": "address"
        },
        {
          "internalType": "uint256",
          "name": "_amount",
          "type": "uint256"
        }
      ],
      "name": "flashSwap",
      "outputs": [],
      "stateMutability": "nonpayable",
      "type": "function"
    },
    {
      "inputs": [
        {
          "internalType": "address",
          "name": "_tokenIn",
          "type": "address"
        },
        {
          "internalType": "address",
          "name": "_tokenOut",
          "type": "address"
        },
        {
          "internalType": "uint256",
          "name": "_amountIn",
          "type": "uint256"
        }
      ],
      "name": "getAmountOutMin",
      "outputs": [
        {
          "internalType": "uint256",
          "name": "",
          "type": "uint256"
        }
      ],
      "stateMutability": "view",
      "type": "function"
    },
    {
      "inputs": [
        {
          "internalType": "address",
          "name": "_tokenA",
          "type": "address"
        },
        {
          "internalType": "address",
          "name": "_tokenB",
          "type": "address"
        }
      ],
      "name": "removeLiquidity",
      "outputs": [],
      "stateMutability": "nonpayable",
      "type": "function"
    },
    {
      "inputs": [
        {
          "internalType": "address",
          "name": "_tokenIn",
          "type": "address"
        },
        {
          "internalType": "address",
          "name": "_tokenOut",
          "type": "address"
        },
        {
          "internalType": "uint256",
          "name": "_amountIn",
          "type": "uint256"
        },
        {
          "internalType": "uint256",
          "name": "_amountOutMin",
          "type": "uint256"
        },
        {
          "internalType": "address",
          "name": "_to",
          "type": "address"
        }
      ],
      "name": "swap",
      "outputs": [],
      "stateMutability": "nonpayable",
      "type": "function"
    },
    {
      "inputs": [
        {
          "internalType": "address",
          "name": "_sender",
          "type": "address"
        },
        {
          "internalType": "uint256",
          "name": "_amount0",
          "type": "uint256"
        },
        {
          "internalType": "uint256",
          "name": "_amount1",
          "type": "uint256"
        },
        {
          "internalType": "bytes",
          "name": "_data",
          "type": "bytes"
        }
      ],
      "name": "uniswapV2Call",
      "outputs": [],
      "stateMutability": "nonpayable",
      "type": "function"
    }
  ],
  "transactionHash": "0xacf2535f244f7b83593ed7cc203ac94d95cf9a89215a28ef8fdbd6c53c481664",
  "args": [],
  "numDeployments": 1,
  "solcInputHash": "eb08c468ab781e4244e47f48238a9e5d",
  "bytecode": "0x608060405234801561001057600080fd5b506128f4806100206000396000f3fe608060405234801561001057600080fd5b50600436106100625760003560e01c806310d1e85c146100675780633c50eec1146100835780639cf38f7c146100b3578063abeb767c146100cf578063cf6c62ea146100eb578063d5bcb9b514610107575b600080fd5b610081600480360381019061007c91906117fd565b610123565b005b61009d60048036038101906100989190611885565b610569565b6040516100aa91906118e7565b60405180910390f35b6100cd60048036038101906100c89190611902565b610908565b005b6100e960048036038101906100e49190611942565b610bc6565b005b61010560048036038101906101009190611982565b610ee5565b005b610121600480360381019061011c91906119e9565b611265565b005b60003373ffffffffffffffffffffffffffffffffffffffff16630dfe16816040518163ffffffff1660e01b8152600401602060405180830381865afa158015610170573d6000803e3d6000fd5b505050506040513d601f19601f820116820180604052508101906101949190611a79565b905060003373ffffffffffffffffffffffffffffffffffffffff1663d21220a76040518163ffffffff1660e01b8152600401602060405180830381865afa1580156101e3573d6000803e3d6000fd5b505050506040513d601f19601f820116820180604052508101906102079190611a79565b90506000735c69bee701ef814a2b6a3edd4b1652cb9cc5aa6f73ffffffffffffffffffffffffffffffffffffffff1663e6a4390584846040518363ffffffff1660e01b815260040161025a929190611ab5565b602060405180830381865afa158015610277573d6000803e3d6000fd5b505050506040513d601f19601f8201168201806040525081019061029b9190611a79565b90508073ffffffffffffffffffffffffffffffffffffffff163373ffffffffffffffffffffffffffffffffffffffff161461030b576040517f08c379a000000000000000000000000000000000000000000000000000000000815260040161030290611b3b565b60405180910390fd5b3073ffffffffffffffffffffffffffffffffffffffff168873ffffffffffffffffffffffffffffffffffffffff1614610379576040517f08c379a000000000000000000000000000000000000000000000000000000000815260040161037090611ba7565b60405180910390fd5b600080868681019061038b9190611c05565b91509150600060016103e56003846103a39190611c74565b6103ad9190611cfd565b6103b79190611d2e565b9050600081836103c79190611d2e565b90507fdd970dd9b5bfe707922155b058a407655cb18288b807e2216442bca8ad83d6b5836040516103f89190611dd0565b60405180910390a17fdd970dd9b5bfe707922155b058a407655cb18288b807e2216442bca8ad83d6b58b60405161042f9190611e4a565b60405180910390a17fdd970dd9b5bfe707922155b058a407655cb18288b807e2216442bca8ad83d6b58a6040516104669190611ec4565b60405180910390a17fdd970dd9b5bfe707922155b058a407655cb18288b807e2216442bca8ad83d6b58260405161049d9190611f3e565b60405180910390a17fdd970dd9b5bfe707922155b058a407655cb18288b807e2216442bca8ad83d6b5816040516104d49190611fb8565b60405180910390a18373ffffffffffffffffffffffffffffffffffffffff1663a9059cbb86836040518363ffffffff1660e01b8152600401610517929190611fe6565b6020604051808303816000875af1158015610536573d6000803e3d6000fd5b505050506040513d601f19601f8201168201806040525081019061055a9190612047565b50505050505050505050505050565b6000606073c02aaa39b223fe8d0a0e5c4f27ead9083c756cc273ffffffffffffffffffffffffffffffffffffffff168573ffffffffffffffffffffffffffffffffffffffff1614806105fa575073c02aaa39b223fe8d0a0e5c4f27ead9083c756cc273ffffffffffffffffffffffffffffffffffffffff168473ffffffffffffffffffffffffffffffffffffffff16145b156106ee57600267ffffffffffffffff81111561061a57610619612074565b5b6040519080825280602002602001820160405280156106485781602001602082028036833780820191505090505b50905084816000815181106106605761065f6120a3565b5b602002602001019073ffffffffffffffffffffffffffffffffffffffff16908173ffffffffffffffffffffffffffffffffffffffff168152505083816001815181106106af576106ae6120a3565b5b602002602001019073ffffffffffffffffffffffffffffffffffffffff16908173ffffffffffffffffffffffffffffffffffffffff168152505061083c565b600367ffffffffffffffff81111561070957610708612074565b5b6040519080825280602002602001820160405280156107375781602001602082028036833780820191505090505b509050848160008151811061074f5761074e6120a3565b5b602002602001019073ffffffffffffffffffffffffffffffffffffffff16908173ffffffffffffffffffffffffffffffffffffffff168152505073c02aaa39b223fe8d0a0e5c4f27ead9083c756cc2816001815181106107b2576107b16120a3565b5b602002602001019073ffffffffffffffffffffffffffffffffffffffff16908173ffffffffffffffffffffffffffffffffffffffff16815250508381600281518110610801576108006120a3565b5b602002602001019073ffffffffffffffffffffffffffffffffffffffff16908173ffffffffffffffffffffffffffffffffffffffff16815250505b6000737a250d5630b4cf539739df2c5dacb4c659f2488d73ffffffffffffffffffffffffffffffffffffffff1663d06ca61f85846040518363ffffffff1660e01b815260040161088d929190612190565b600060405180830381865afa1580156108aa573d6000803e3d6000fd5b505050506040513d6000823e3d601f19601f820116820180604052508101906108d391906122f5565b905080600183516108e4919061233e565b815181106108f5576108f46120a3565b5b6020026020010151925050509392505050565b6000735c69bee701ef814a2b6a3edd4b1652cb9cc5aa6f73ffffffffffffffffffffffffffffffffffffffff1663e6a4390584846040518363ffffffff1660e01b8152600401610959929190611ab5565b602060405180830381865afa158015610976573d6000803e3d6000fd5b505050506040513d601f19601f8201168201806040525081019061099a9190611a79565b905060008173ffffffffffffffffffffffffffffffffffffffff166370a08231306040518263ffffffff1660e01b81526004016109d79190612372565b602060405180830381865afa1580156109f4573d6000803e3d6000fd5b505050506040513d601f19601f82011682018060405250810190610a18919061238d565b90508173ffffffffffffffffffffffffffffffffffffffff1663095ea7b3737a250d5630b4cf539739df2c5dacb4c659f2488d836040518363ffffffff1660e01b8152600401610a69929190611fe6565b6020604051808303816000875af1158015610a88573d6000803e3d6000fd5b505050506040513d601f19601f82011682018060405250810190610aac9190612047565b50600080737a250d5630b4cf539739df2c5dacb4c659f2488d73ffffffffffffffffffffffffffffffffffffffff1663baa2abde87878660018030426040518863ffffffff1660e01b8152600401610b0a97969594939291906123ff565b60408051808303816000875af1158015610b28573d6000803e3d6000fd5b505050506040513d601f19601f82011682018060405250810190610b4c919061246e565b915091507fdd970dd9b5bfe707922155b058a407655cb18288b807e2216442bca8ad83d6b582604051610b7f91906124fa565b60405180910390a17fdd970dd9b5bfe707922155b058a407655cb18288b807e2216442bca8ad83d6b581604051610bb69190612574565b60405180910390a1505050505050565b6000735c69bee701ef814a2b6a3edd4b1652cb9cc5aa6f73ffffffffffffffffffffffffffffffffffffffff1663e6a439058473c02aaa39b223fe8d0a0e5c4f27ead9083c756cc26040518363ffffffff1660e01b8152600401610c2b929190611ab5565b602060405180830381865afa158015610c48573d6000803e3d6000fd5b505050506040513d601f19601f82011682018060405250810190610c6c9190611a79565b9050600073ffffffffffffffffffffffffffffffffffffffff168173ffffffffffffffffffffffffffffffffffffffff161415610cde576040517f08c379a0000000000000000000000000000000000000000000000000000000008152600401610cd5906125ee565b60405180910390fd5b60008173ffffffffffffffffffffffffffffffffffffffff16630dfe16816040518163ffffffff1660e01b8152600401602060405180830381865afa158015610d2b573d6000803e3d6000fd5b505050506040513d601f19601f82011682018060405250810190610d4f9190611a79565b905060008273ffffffffffffffffffffffffffffffffffffffff1663d21220a76040518163ffffffff1660e01b8152600401602060405180830381865afa158015610d9e573d6000803e3d6000fd5b505050506040513d601f19601f82011682018060405250810190610dc29190611a79565b905060008273ffffffffffffffffffffffffffffffffffffffff168673ffffffffffffffffffffffffffffffffffffffff1614610e00576000610e02565b845b905060008273ffffffffffffffffffffffffffffffffffffffff168773ffffffffffffffffffffffffffffffffffffffff1614610e40576000610e42565b855b905060008787604051602001610e59929190611fe6565b60405160208183030381529060405290508573ffffffffffffffffffffffffffffffffffffffff1663022c0d9f848430856040518563ffffffff1660e01b8152600401610ea99493929190612696565b600060405180830381600087803b158015610ec357600080fd5b505af1158015610ed7573d6000803e3d6000fd5b505050505050505050505050565b8373ffffffffffffffffffffffffffffffffffffffff166323b872dd3330856040518463ffffffff1660e01b8152600401610f22939291906126e2565b6020604051808303816000875af1158015610f41573d6000803e3d6000fd5b505050506040513d601f19601f82011682018060405250810190610f659190612047565b508273ffffffffffffffffffffffffffffffffffffffff166323b872dd3330846040518463ffffffff1660e01b8152600401610fa3939291906126e2565b6020604051808303816000875af1158015610fc2573d6000803e3d6000fd5b505050506040513d601f19601f82011682018060405250810190610fe69190612047565b508373ffffffffffffffffffffffffffffffffffffffff1663095ea7b3737a250d5630b4cf539739df2c5dacb4c659f2488d846040518363ffffffff1660e01b8152600401611036929190611fe6565b6020604051808303816000875af1158015611055573d6000803e3d6000fd5b505050506040513d601f19601f820116820180604052508101906110799190612047565b508273ffffffffffffffffffffffffffffffffffffffff1663095ea7b3737a250d5630b4cf539739df2c5dacb4c659f2488d836040518363ffffffff1660e01b81526004016110c9929190611fe6565b6020604051808303816000875af11580156110e8573d6000803e3d6000fd5b505050506040513d601f19601f8201168201806040525081019061110c9190612047565b506000806000737a250d5630b4cf539739df2c5dacb4c659f2488d73ffffffffffffffffffffffffffffffffffffffff1663e8e337008888888860018030426040518963ffffffff1660e01b815260040161116e989796959493929190612719565b6060604051808303816000875af115801561118d573d6000803e3d6000fd5b505050506040513d601f19601f820116820180604052508101906111b19190612797565b9250925092507fdd970dd9b5bfe707922155b058a407655cb18288b807e2216442bca8ad83d6b5836040516111e691906124fa565b60405180910390a17fdd970dd9b5bfe707922155b058a407655cb18288b807e2216442bca8ad83d6b58260405161121d9190612574565b60405180910390a17fdd970dd9b5bfe707922155b058a407655cb18288b807e2216442bca8ad83d6b5816040516112549190612836565b60405180910390a150505050505050565b8473ffffffffffffffffffffffffffffffffffffffff166323b872dd3330866040518463ffffffff1660e01b81526004016112a2939291906126e2565b6020604051808303816000875af11580156112c1573d6000803e3d6000fd5b505050506040513d601f19601f820116820180604052508101906112e59190612047565b508473ffffffffffffffffffffffffffffffffffffffff1663095ea7b3737a250d5630b4cf539739df2c5dacb4c659f2488d856040518363ffffffff1660e01b8152600401611335929190611fe6565b6020604051808303816000875af1158015611354573d6000803e3d6000fd5b505050506040513d601f19601f820116820180604052508101906113789190612047565b50606073c02aaa39b223fe8d0a0e5c4f27ead9083c756cc273ffffffffffffffffffffffffffffffffffffffff168673ffffffffffffffffffffffffffffffffffffffff161480611408575073c02aaa39b223fe8d0a0e5c4f27ead9083c756cc273ffffffffffffffffffffffffffffffffffffffff168573ffffffffffffffffffffffffffffffffffffffff16145b156114fc57600267ffffffffffffffff81111561142857611427612074565b5b6040519080825280602002602001820160405280156114565781602001602082028036833780820191505090505b509050858160008151811061146e5761146d6120a3565b5b602002602001019073ffffffffffffffffffffffffffffffffffffffff16908173ffffffffffffffffffffffffffffffffffffffff168152505084816001815181106114bd576114bc6120a3565b5b602002602001019073ffffffffffffffffffffffffffffffffffffffff16908173ffffffffffffffffffffffffffffffffffffffff168152505061164a565b600367ffffffffffffffff81111561151757611516612074565b5b6040519080825280602002602001820160405280156115455781602001602082028036833780820191505090505b509050858160008151811061155d5761155c6120a3565b5b602002602001019073ffffffffffffffffffffffffffffffffffffffff16908173ffffffffffffffffffffffffffffffffffffffff168152505073c02aaa39b223fe8d0a0e5c4f27ead9083c756cc2816001815181106115c0576115bf6120a3565b5b602002602001019073ffffffffffffffffffffffffffffffffffffffff16908173ffffffffffffffffffffffffffffffffffffffff1681525050848160028151811061160f5761160e6120a3565b5b602002602001019073ffffffffffffffffffffffffffffffffffffffff16908173ffffffffffffffffffffffffffffffffffffffff16815250505b737a250d5630b4cf539739df2c5dacb4c659f2488d73ffffffffffffffffffffffffffffffffffffffff166338ed173985858486426040518663ffffffff1660e01b815260040161169f959493929190612864565b6000604051808303816000875af11580156116be573d6000803e3d6000fd5b505050506040513d6000823e3d601f19601f820116820180604052508101906116e791906122f5565b50505050505050565b6000604051905090565b600080fd5b600080fd5b600073ffffffffffffffffffffffffffffffffffffffff82169050919050565b600061172f82611704565b9050919050565b61173f81611724565b811461174a57600080fd5b50565b60008135905061175c81611736565b92915050565b6000819050919050565b61177581611762565b811461178057600080fd5b50565b6000813590506117928161176c565b92915050565b600080fd5b600080fd5b600080fd5b60008083601f8401126117bd576117bc611798565b5b8235905067ffffffffffffffff8111156117da576117d961179d565b5b6020830191508360018202830111156117f6576117f56117a2565b5b9250929050565b600080600080600060808688031215611819576118186116fa565b5b60006118278882890161174d565b955050602061183888828901611783565b945050604061184988828901611783565b935050606086013567ffffffffffffffff81111561186a576118696116ff565b5b611876888289016117a7565b92509250509295509295909350565b60008060006060848603121561189e5761189d6116fa565b5b60006118ac8682870161174d565b93505060206118bd8682870161174d565b92505060406118ce86828701611783565b9150509250925092565b6118e181611762565b82525050565b60006020820190506118fc60008301846118d8565b92915050565b60008060408385031215611919576119186116fa565b5b60006119278582860161174d565b92505060206119388582860161174d565b9150509250929050565b60008060408385031215611959576119586116fa565b5b60006119678582860161174d565b925050602061197885828601611783565b9150509250929050565b6000806000806080858703121561199c5761199b6116fa565b5b60006119aa8782880161174d565b94505060206119bb8782880161174d565b93505060406119cc87828801611783565b92505060606119dd87828801611783565b91505092959194509250565b600080600080600060a08688031215611a0557611a046116fa565b5b6000611a138882890161174d565b9550506020611a248882890161174d565b9450506040611a3588828901611783565b9350506060611a4688828901611783565b9250506080611a578882890161174d565b9150509295509295909350565b600081519050611a7381611736565b92915050565b600060208284031215611a8f57611a8e6116fa565b5b6000611a9d84828501611a64565b91505092915050565b611aaf81611724565b82525050565b6000604082019050611aca6000830185611aa6565b611ad76020830184611aa6565b9392505050565b600082825260208201905092915050565b7f70616972206e6f7420666f756e64000000000000000000000000000000000000600082015250565b6000611b25600e83611ade565b9150611b3082611aef565b602082019050919050565b60006020820190508181036000830152611b5481611b18565b9050919050565b7f696e76616c69642073656e646572000000000000000000000000000000000000600082015250565b6000611b91600e83611ade565b9150611b9c82611b5b565b602082019050919050565b60006020820190508181036000830152611bc081611b84565b9050919050565b6000611bd282611704565b9050919050565b611be281611bc7565b8114611bed57600080fd5b50565b600081359050611bff81611bd9565b92915050565b60008060408385031215611c1c57611c1b6116fa565b5b6000611c2a85828601611bf0565b9250506020611c3b85828601611783565b9150509250929050565b7f4e487b7100000000000000000000000000000000000000000000000000000000600052601160045260246000fd5b6000611c7f82611762565b9150611c8a83611762565b9250817fffffffffffffffffffffffffffffffffffffffffffffffffffffffffffffffff0483118215151615611cc357611cc2611c45565b5b828202905092915050565b7f4e487b7100000000000000000000000000000000000000000000000000000000600052601260045260246000fd5b6000611d0882611762565b9150611d1383611762565b925082611d2357611d22611cce565b5b828204905092915050565b6000611d3982611762565b9150611d4483611762565b9250827fffffffffffffffffffffffffffffffffffffffffffffffffffffffffffffffff03821115611d7957611d78611c45565b5b828201905092915050565b7f616d6f756e740000000000000000000000000000000000000000000000000000600082015250565b6000611dba600683611ade565b9150611dc582611d84565b602082019050919050565b60006040820190508181036000830152611de981611dad565b9050611df860208301846118d8565b92915050565b7f616d6f756e743000000000000000000000000000000000000000000000000000600082015250565b6000611e34600783611ade565b9150611e3f82611dfe565b602082019050919050565b60006040820190508181036000830152611e6381611e27565b9050611e7260208301846118d8565b92915050565b7f616d6f756e743100000000000000000000000000000000000000000000000000600082015250565b6000611eae600783611ade565b9150611eb982611e78565b602082019050919050565b60006040820190508181036000830152611edd81611ea1565b9050611eec60208301846118d8565b92915050565b7f6665650000000000000000000000000000000000000000000000000000000000600082015250565b6000611f28600383611ade565b9150611f3382611ef2565b602082019050919050565b60006040820190508181036000830152611f5781611f1b565b9050611f6660208301846118d8565b92915050565b7f616d6f756e7420746f2072657061790000000000000000000000000000000000600082015250565b6000611fa2600f83611ade565b9150611fad82611f6c565b602082019050919050565b60006040820190508181036000830152611fd181611f95565b9050611fe060208301846118d8565b92915050565b6000604082019050611ffb6000830185611aa6565b61200860208301846118d8565b9392505050565b60008115159050919050565b6120248161200f565b811461202f57600080fd5b50565b6000815190506120418161201b565b92915050565b60006020828403121561205d5761205c6116fa565b5b600061206b84828501612032565b91505092915050565b7f4e487b7100000000000000000000000000000000000000000000000000000000600052604160045260246000fd5b7f4e487b7100000000000000000000000000000000000000000000000000000000600052603260045260246000fd5b600081519050919050565b600082825260208201905092915050565b6000819050602082019050919050565b61210781611724565b82525050565b600061211983836120fe565b60208301905092915050565b6000602082019050919050565b600061213d826120d2565b61214781856120dd565b9350612152836120ee565b8060005b8381101561218357815161216a888261210d565b975061217583612125565b925050600181019050612156565b5085935050505092915050565b60006040820190506121a560008301856118d8565b81810360208301526121b78184612132565b90509392505050565b6000601f19601f8301169050919050565b6121da826121c0565b810181811067ffffffffffffffff821117156121f9576121f8612074565b5b80604052505050565b600061220c6116f0565b905061221882826121d1565b919050565b600067ffffffffffffffff82111561223857612237612074565b5b602082029050602081019050919050565b6000815190506122588161176c565b92915050565b600061227161226c8461221d565b612202565b90508083825260208201905060208402830185811115612294576122936117a2565b5b835b818110156122bd57806122a98882612249565b845260208401935050602081019050612296565b5050509392505050565b600082601f8301126122dc576122db611798565b5b81516122ec84826020860161225e565b91505092915050565b60006020828403121561230b5761230a6116fa565b5b600082015167ffffffffffffffff811115612329576123286116ff565b5b612335848285016122c7565b91505092915050565b600061234982611762565b915061235483611762565b92508282101561236757612366611c45565b5b828203905092915050565b60006020820190506123876000830184611aa6565b92915050565b6000602082840312156123a3576123a26116fa565b5b60006123b184828501612249565b91505092915050565b6000819050919050565b6000819050919050565b60006123e96123e46123df846123ba565b6123c4565b611762565b9050919050565b6123f9816123ce565b82525050565b600060e082019050612414600083018a611aa6565b6124216020830189611aa6565b61242e60408301886118d8565b61243b60608301876123f0565b61244860808301866123f0565b61245560a0830185611aa6565b61246260c08301846118d8565b98975050505050505050565b60008060408385031215612485576124846116fa565b5b600061249385828601612249565b92505060206124a485828601612249565b9150509250929050565b7f616d6f756e744100000000000000000000000000000000000000000000000000600082015250565b60006124e4600783611ade565b91506124ef826124ae565b602082019050919050565b60006040820190508181036000830152612513816124d7565b905061252260208301846118d8565b92915050565b7f616d6f756e744200000000000000000000000000000000000000000000000000600082015250565b600061255e600783611ade565b915061256982612528565b602082019050919050565b6000604082019050818103600083015261258d81612551565b905061259c60208301846118d8565b92915050565b7f70616972206e6f74206578697374000000000000000000000000000000000000600082015250565b60006125d8600e83611ade565b91506125e3826125a2565b602082019050919050565b60006020820190508181036000830152612607816125cb565b9050919050565b600081519050919050565b600082825260208201905092915050565b60005b8381101561264857808201518184015260208101905061262d565b83811115612657576000848401525b50505050565b60006126688261260e565b6126728185612619565b935061268281856020860161262a565b61268b816121c0565b840191505092915050565b60006080820190506126ab60008301876118d8565b6126b860208301866118d8565b6126c56040830185611aa6565b81810360608301526126d7818461265d565b905095945050505050565b60006060820190506126f76000830186611aa6565b6127046020830185611aa6565b61271160408301846118d8565b949350505050565b60006101008201905061272f600083018b611aa6565b61273c602083018a611aa6565b61274960408301896118d8565b61275660608301886118d8565b61276360808301876123f0565b61277060a08301866123f0565b61277d60c0830185611aa6565b61278a60e08301846118d8565b9998505050505050505050565b6000806000606084860312156127b0576127af6116fa565b5b60006127be86828701612249565b93505060206127cf86828701612249565b92505060406127e086828701612249565b9150509250925092565b7f6c69717569646974790000000000000000000000000000000000000000000000600082015250565b6000612820600983611ade565b915061282b826127ea565b602082019050919050565b6000604082019050818103600083015261284f81612813565b905061285e60208301846118d8565b92915050565b600060a08201905061287960008301886118d8565b61288660208301876118d8565b81810360408301526128988186612132565b90506128a76060830185611aa6565b6128b460808301846118d8565b969550505050505056fea2646970667358221220ee5991433edd70d3beb761c655aacee0a0eceb57e9aa048fa1009165e6d4ad4664736f6c634300080a0033",
  "devdoc": {
    "kind": "dev",
    "methods": {},
    "version": 1
  },
  "userdoc": {
    "kind": "user",
    "methods": {},
    "version": 1
  },
  "storageLayout": {
    "storage": [],
    "types": null
  }
}