{
  "address": "0x986aaa537b8cc170761FDAC6aC4fc7F9d8a20A8C",
  "abi": [
    {
      "inputs": [
        {
          "internalType": "address",
          "name": "_tokenIn",
          "type": "address"
        },
        {
          "internalType": "address",
          "name": "_tokenOut",
          "type": "address"
        },
        {
          "internalType": "uint256",
          "name": "_amountIn",
          "type": "uint256"
        }
      ],
      "name": "getAmountOutMin",
      "outputs": [
        {
          "internalType": "uint256",
          "name": "",
          "type": "uint256"
        }
      ],
      "stateMutability": "view",
      "type": "function"
    },
    {
      "inputs": [
        {
          "internalType": "address",
          "name": "_tokenIn",
          "type": "address"
        },
        {
          "internalType": "address",
          "name": "_tokenOut",
          "type": "address"
        },
        {
          "internalType": "uint256",
          "name": "_amountIn",
          "type": "uint256"
        },
        {
          "internalType": "uint256",
          "name": "_amountOutMin",
          "type": "uint256"
        },
        {
          "internalType": "address",
          "name": "_to",
          "type": "address"
        }
      ],
      "name": "swap",
      "outputs": [],
      "stateMutability": "nonpayable",
      "type": "function"
    }
  ],
  "transactionHash": "0x57af70a047f137751f5f3c8f340ff5eedc2a2b558eea7cb98b6bd65b24de842a",
  "args": [],
  "numDeployments": 1,
  "solcInputHash": "41593d4fc14d7af5f77c7e9776c39dc1",
  "bytecode": "0x608060405234801561001057600080fd5b5061110a806100206000396000f3fe608060405234801561001057600080fd5b50600436106100365760003560e01c80633c50eec11461003b578063d5bcb9b51461006b575b600080fd5b61005560048036038101906100509190610c11565b610087565b6040516100629190610e44565b60405180910390f35b61008560048036038101906100809190610c60565b610565565b005b6000606073c02aaa39b223fe8d0a0e5c4f27ead9083c756cc273ffffffffffffffffffffffffffffffffffffffff168573ffffffffffffffffffffffffffffffffffffffff161480610118575073c02aaa39b223fe8d0a0e5c4f27ead9083c756cc273ffffffffffffffffffffffffffffffffffffffff168473ffffffffffffffffffffffffffffffffffffffff16145b1561027e57600267ffffffffffffffff81111561015e577f4e487b7100000000000000000000000000000000000000000000000000000000600052604160045260246000fd5b60405190808252806020026020018201604052801561018c5781602001602082028036833780820191505090505b50905084816000815181106101ca577f4e487b7100000000000000000000000000000000000000000000000000000000600052603260045260246000fd5b602002602001019073ffffffffffffffffffffffffffffffffffffffff16908173ffffffffffffffffffffffffffffffffffffffff1681525050838160018151811061023f577f4e487b7100000000000000000000000000000000000000000000000000000000600052603260045260246000fd5b602002602001019073ffffffffffffffffffffffffffffffffffffffff16908173ffffffffffffffffffffffffffffffffffffffff1681525050610464565b600367ffffffffffffffff8111156102bf577f4e487b7100000000000000000000000000000000000000000000000000000000600052604160045260246000fd5b6040519080825280602002602001820160405280156102ed5781602001602082028036833780820191505090505b509050848160008151811061032b577f4e487b7100000000000000000000000000000000000000000000000000000000600052603260045260246000fd5b602002602001019073ffffffffffffffffffffffffffffffffffffffff16908173ffffffffffffffffffffffffffffffffffffffff168152505073c02aaa39b223fe8d0a0e5c4f27ead9083c756cc2816001815181106103b4577f4e487b7100000000000000000000000000000000000000000000000000000000600052603260045260246000fd5b602002602001019073ffffffffffffffffffffffffffffffffffffffff16908173ffffffffffffffffffffffffffffffffffffffff16815250508381600281518110610429577f4e487b7100000000000000000000000000000000000000000000000000000000600052603260045260246000fd5b602002602001019073ffffffffffffffffffffffffffffffffffffffff16908173ffffffffffffffffffffffffffffffffffffffff16815250505b6000737a250d5630b4cf539739df2c5dacb4c659f2488d73ffffffffffffffffffffffffffffffffffffffff1663d06ca61f85846040518363ffffffff1660e01b81526004016104b5929190610e5f565b60006040518083038186803b1580156104cd57600080fd5b505afa1580156104e1573d6000803e3d6000fd5b505050506040513d6000823e3d601f19601f8201168201806040525081019061050a9190610cd7565b9050806001835161051b9190610f73565b81518110610552577f4e487b7100000000000000000000000000000000000000000000000000000000600052603260045260246000fd5b6020026020010151925050509392505050565b8473ffffffffffffffffffffffffffffffffffffffff166323b872dd3330866040518463ffffffff1660e01b81526004016105a293929190610de4565b602060405180830381600087803b1580156105bc57600080fd5b505af11580156105d0573d6000803e3d6000fd5b505050506040513d601f19601f820116820180604052508101906105f49190610d18565b508473ffffffffffffffffffffffffffffffffffffffff1663095ea7b3737a250d5630b4cf539739df2c5dacb4c659f2488d856040518363ffffffff1660e01b8152600401610644929190610e1b565b602060405180830381600087803b15801561065e57600080fd5b505af1158015610672573d6000803e3d6000fd5b505050506040513d601f19601f820116820180604052508101906106969190610d18565b50606073c02aaa39b223fe8d0a0e5c4f27ead9083c756cc273ffffffffffffffffffffffffffffffffffffffff168673ffffffffffffffffffffffffffffffffffffffff161480610726575073c02aaa39b223fe8d0a0e5c4f27ead9083c756cc273ffffffffffffffffffffffffffffffffffffffff168573ffffffffffffffffffffffffffffffffffffffff16145b1561088c57600267ffffffffffffffff81111561076c577f4e487b7100000000000000000000000000000000000000000000000000000000600052604160045260246000fd5b60405190808252806020026020018201604052801561079a5781602001602082028036833780820191505090505b50905085816000815181106107d8577f4e487b7100000000000000000000000000000000000000000000000000000000600052603260045260246000fd5b602002602001019073ffffffffffffffffffffffffffffffffffffffff16908173ffffffffffffffffffffffffffffffffffffffff1681525050848160018151811061084d577f4e487b7100000000000000000000000000000000000000000000000000000000600052603260045260246000fd5b602002602001019073ffffffffffffffffffffffffffffffffffffffff16908173ffffffffffffffffffffffffffffffffffffffff1681525050610a72565b600367ffffffffffffffff8111156108cd577f4e487b7100000000000000000000000000000000000000000000000000000000600052604160045260246000fd5b6040519080825280602002602001820160405280156108fb5781602001602082028036833780820191505090505b5090508581600081518110610939577f4e487b7100000000000000000000000000000000000000000000000000000000600052603260045260246000fd5b602002602001019073ffffffffffffffffffffffffffffffffffffffff16908173ffffffffffffffffffffffffffffffffffffffff168152505073c02aaa39b223fe8d0a0e5c4f27ead9083c756cc2816001815181106109c2577f4e487b7100000000000000000000000000000000000000000000000000000000600052603260045260246000fd5b602002602001019073ffffffffffffffffffffffffffffffffffffffff16908173ffffffffffffffffffffffffffffffffffffffff16815250508481600281518110610a37577f4e487b7100000000000000000000000000000000000000000000000000000000600052603260045260246000fd5b602002602001019073ffffffffffffffffffffffffffffffffffffffff16908173ffffffffffffffffffffffffffffffffffffffff16815250505b737a250d5630b4cf539739df2c5dacb4c659f2488d73ffffffffffffffffffffffffffffffffffffffff166338ed173985858486426040518663ffffffff1660e01b8152600401610ac7959493929190610e8f565b600060405180830381600087803b158015610ae157600080fd5b505af1158015610af5573d6000803e3d6000fd5b505050506040513d6000823e3d601f19601f82011682018060405250810190610b1e9190610cd7565b50505050505050565b6000610b3a610b3584610f0e565b610ee9565b90508083825260208201905082856020860282011115610b5957600080fd5b60005b85811015610b895781610b6f8882610bfc565b845260208401935060208301925050600181019050610b5c565b5050509392505050565b600081359050610ba28161108f565b92915050565b600082601f830112610bb957600080fd5b8151610bc9848260208601610b27565b91505092915050565b600081519050610be1816110a6565b92915050565b600081359050610bf6816110bd565b92915050565b600081519050610c0b816110bd565b92915050565b600080600060608486031215610c2657600080fd5b6000610c3486828701610b93565b9350506020610c4586828701610b93565b9250506040610c5686828701610be7565b9150509250925092565b600080600080600060a08688031215610c7857600080fd5b6000610c8688828901610b93565b9550506020610c9788828901610b93565b9450506040610ca888828901610be7565b9350506060610cb988828901610be7565b9250506080610cca88828901610b93565b9150509295509295909350565b600060208284031215610ce957600080fd5b600082015167ffffffffffffffff811115610d0357600080fd5b610d0f84828501610ba8565b91505092915050565b600060208284031215610d2a57600080fd5b6000610d3884828501610bd2565b91505092915050565b6000610d4d8383610d59565b60208301905092915050565b610d6281610fa7565b82525050565b610d7181610fa7565b82525050565b6000610d8282610f4a565b610d8c8185610f62565b9350610d9783610f3a565b8060005b83811015610dc8578151610daf8882610d41565b9750610dba83610f55565b925050600181019050610d9b565b5085935050505092915050565b610dde81610fe5565b82525050565b6000606082019050610df96000830186610d68565b610e066020830185610d68565b610e136040830184610dd5565b949350505050565b6000604082019050610e306000830185610d68565b610e3d6020830184610dd5565b9392505050565b6000602082019050610e596000830184610dd5565b92915050565b6000604082019050610e746000830185610dd5565b8181036020830152610e868184610d77565b90509392505050565b600060a082019050610ea46000830188610dd5565b610eb16020830187610dd5565b8181036040830152610ec38186610d77565b9050610ed26060830185610d68565b610edf6080830184610dd5565b9695505050505050565b6000610ef3610f04565b9050610eff8282610fef565b919050565b6000604051905090565b600067ffffffffffffffff821115610f2957610f2861104f565b5b602082029050602081019050919050565b6000819050602082019050919050565b600081519050919050565b6000602082019050919050565b600082825260208201905092915050565b6000610f7e82610fe5565b9150610f8983610fe5565b925082821015610f9c57610f9b611020565b5b828203905092915050565b6000610fb282610fc5565b9050919050565b60008115159050919050565b600073ffffffffffffffffffffffffffffffffffffffff82169050919050565b6000819050919050565b610ff88261107e565b810181811067ffffffffffffffff821117156110175761101661104f565b5b80604052505050565b7f4e487b7100000000000000000000000000000000000000000000000000000000600052601160045260246000fd5b7f4e487b7100000000000000000000000000000000000000000000000000000000600052604160045260246000fd5b6000601f19601f8301169050919050565b61109881610fa7565b81146110a357600080fd5b50565b6110af81610fb9565b81146110ba57600080fd5b50565b6110c681610fe5565b81146110d157600080fd5b5056fea2646970667358221220acca3539faba5d192e7cbe1762ccb534120827122aa528a426d57413190c6ca164736f6c63430008040033",
  "devdoc": {
    "kind": "dev",
    "methods": {},
    "version": 1
  },
  "userdoc": {
    "kind": "user",
    "methods": {},
    "version": 1
  },
  "storageLayout": {
    "storage": [],
    "types": null
  }
}